120250103EIN 11-111111           GENERIC MERCHANT                               
5Web Payments     2025010200000060066866360                                     
6     013619M000000000007514115080000008356                                     
6     001665V000000000008013285360000005200                                     
6     023640M000000000007789318650000007000                                     
6     076702V000000000008068940970000008398                                     
6     006562V000000000006968691480000007009                                     
6     834630V000000000007866864220000009676                                     
9      00000060066866360                                                      
